:1000000000160020391000000F4E00000D100000F7
:100010000D1000000D1000000D1000000000000089
:10002000000000000000000000000000190C0000AB
:100030000D10000000000000B50B00000D100000C6
:10004000D50C0000D50C0000D50C0000D50C00002C
:10005000D50C0000D50C0000D50C0000D50C00001C
:10006000D50C0000D50C0000D50C0000D50C00000C
:10007000D50C0000D50C0000D50C0000D50C0000FC
:10008000D50C0000D50C0000D50C0000D50C0000EC
:10009000D50C0000D50C0000D50C0000D50C0000DC
:1000A000D50C0000D50C0000D50C0000D50C0000CC
:1000B000D50C0000D50C0000D50C0000D50C0000BC
:1000C000D50C0000D50C0000D50C0000D50C0000AC
:0C00D000D50C0000D50C0000D50C000081
:1000DC004FF0FF0C1CEAD0521EBF1CEAD15392EA1F
:1000EC000C0F93EA0C0F6FD01A4480EA010C4002FB
:1000FC0018BF5FEA41211ED04FF0006343EA501055
:10010C0043EA5111A0FB01310CF00040B1F5000F96
:10011C003EBF490041EAD3715B0040EA010062F145
:10012C007F02FD2A1DD8B3F1004F40EBC25008BF2F
:10013C0020F00100704790F0000F0CF0004C08BF4D
:10014C0049024CEA502040EA51207F3AC2BFD2F11A
:10015C00FF0340EAC250704740F400004FF0000328
:10016C00013A5DDC12F1190FDCBF00F00040704762
:10017C00C2F10002410021FA02F1C2F1200200FAA0
:10018C0002FC5FEA310040F1000053EA4C0308BF67
:10019C0020EADC70704792F0000F00F0004C02BFB8
:1001AC00400010F4000F013AF9D040EA0C0093F033
:1001BC00000F01F0004C02BF490011F4000F013B8D
:1001CC00F9D041EA0C018FE70CEAD15392EA0C0FFB
:1001DC0018BF93EA0C0F0AD030F0004C18BF31F066
:1001EC00004CD8D180EA010000F00040704790F03C
:1001FC00000F17BF90F0004F084691F0000F91F0E0
:10020C00004F14D092EA0C0F01D142020FD193EAA5
:10021C000C0F03D14B0218BF084608D180EA01002D
:10022C0000F0004040F0FE4040F40000704740F009
:10023C00FE4040F44000704780F0004002E000BFF8
:10024C0081F0004142001FBF5FEA410392EA030FB5
:10025C007FEA226C7FEA236C6AD04FEA1262D2EBFF
:10026C001363C1BFD218414048404140B8BF5B4204
:10027C00192B88BF704710F0004F40F4000020F09D
:10028C007F4018BF404211F0004F41F4000121F0B3
:10029C007F4118BF494292EA030F3FD0A2F10102FD
:1002AC0041FA03FC10EB0C00C3F1200301FA03F13B
:1002BC0000F0004302D5494260EB4000B0F5000F5E
:1002CC0013D3B0F1807F06D340084FEA310102F11D
:1002DC000102FE2A51D2B1F1004F40EBC25008BFCF
:1002EC0020F0010040EA03007047490040EB000099
:1002FC00013A28BFB0F5000FEDD2B0FA80FCACF19A
:10030C00080CB2EB0C0200FA0CF0AABF00EBC250C6
:10031C0052421843BCBFD0401843704792F0000FB4
:10032C0081F4000106BF80F400000132013BB5E707
:10033C004FEA41037FEA226C18BF7FEA236C21D07D
:10034C0092EA030F04D092F0000F08BF08467047E2
:10035C0090EA010F1CBF0020704712F07F4F04D1B0
:10036C00400028BF40F00040704712F100723CBFC3
:10037C0000F50000704700F0004343F0FE4040F4ED
:10038C00000070477FEA226216BF08467FEA2363AB
:10039C000146420206BF5FEA412390EA010F40F496
:1003AC00800070474FF0000304E000BF10F00043E2
:1003BC0048BF40425FEA000C08BF704743F09643C9
:1003CC0001464FF000001CE050EA010208BF7047E4
:1003DC004FF000030AE000BF50EA010208BF70476B
:1003EC0011F0004302D5404261EB41015FEA010C80
:1003FC0002BF84460146002043F0B64308BFA3F178
:10040C008053A3F50003BCFA8CF2083AA3EBC25359
:10041C0010DB01FA02FC634400FA02FCC2F1200278
:10042C00BCF1004F20FA02F243EB020008BF20F0AF
:10043C000100704702F1200201FA02FCC2F1200215
:10044C0050EA4C0021FA02F243EB020008BF20EA0A
:10045C00DC7070474FEA4002B2F1FE4F0FD34FF001
:10046C009E03B3EB12620DD94FEA002343F0004315
:10047C0010F0004F23FA02F018BF404270474FF0C3
:10048C000000704712F1610F01D1420205D110F04A
:10049C00004008BF6FF0004070474FF000007047FD
:1004AC0053B94AB9002908BF00281CBF4FF0FF31CF
:1004BC004FF0FF3000F00CB8ADF1080C6DE904CE34
:1004CC0000F008F8DDF804E0DDE9022304B0704721
:1004DC00704700BF2DE9F04786468C460846089EBB
:1004EC00154674461946002B40F0C2808542B2FA7C
:1004FC0082F245D94AB1C2F1200300FA02FC2EFA6D
:10050C0003F3954043EA0C0C94404FEA154EA8B205
:10051C00BCFBFEF8230C0EFB18CC08FB00F943EADD
:10052C000C43994528D9EB1808F1FF3704D29945AB
:10053C0002D9A8F102072B44A3EB0903A4B2B3FB25
:10054C00FEFC0EFB1C330CFB00F044EA0344A042FF
:10055C0014D92C190CF1FF3304D2A04202D9ACF1FE
:10056C0002032C44241A43EA07401EB1D440002352
:10057C0034607360BDE8F0874746DDE76346F1E71A
:10058C0092BB431B01214FEA154EAFB2B3FBFEFCED
:10059C00200C0EFB1C330CFB07F840EA0343984578
:1005AC0062D9EB180CF1FF3004D2984502D9ACF1AA
:1005BC0002002B44A3EB0803A4B2B3FBFEFC0EFB1E
:1005CC001C330CFB07F744EA0344A7424ED92C1901
:1005DC000CF1FF3304D2A74202D9ACF102032C4434
:1005EC00E41B43EA0040C0E7C2F1200320FA03F108
:1005FC00954090402EFA03F303434FEA154EAFB2E9
:10060C00B1FBFEFC0EFB1C10190C0CFB07F841EAAD
:10061C000041884504FA02F422D969180CF1FF3024
:10062C0004D2884502D9ACF102002944A1EB08019F
:10063C009BB2B1FBFEFC0EFB1C110CFB07F743EA53
:10064C0001439F420ED9EB180CF1FF3104D29F42AB
:10065C0002D9ACF102012B44DB1B41EA004192E7C9
:10066C006046E3E76146F7E76046A3E76346B7E712
:10067C00834206D916B9002108467BE7C6E900E09B
:10068C00F9E7B3FA83F78FB9834201D3724508D8DF
:10069C00BEEB020460EB030301209C461EB9002153
:1006AC0068E73846FAE7C6E9004CF8E7C7F1200CD2
:1006BC00BB4022FA0CF41C432EFA0CF120FA0CF37A
:1006CC00B84001434FEA14490EFA07F5B3FBF9F8A9
:1006DC001FFA84FE09FB18300B0C08FB0EFA43EAD8
:1006EC0000439A4502FA07F240D9E31808F1FF30AB
:1006FC0004D29A4502D9A8F102002344A3EB0A03C1
:10070C0089B2B3FBF9F809FB183308FB0EFE41EA7A
:10071C0003418E452CD9611808F1FF3304D28E4564
:10072C0002D9A8F10203214443EA0040A0FB02983D
:10073C00A1EB0E014145CE46434602D306D14D45B1
:10074C0004D2B9EB020E68EB04030138002EA6D0DC
:10075C00B5EB0E0261EB030101FA0CFC22FA07F374
:10076C004CEA0303F940C6E9003198E74046C5E777
:10077C004346D9E72DE9F041164804F0ADFEE8B147
:10078C00154F144CDFF85480384604F0BBF9A668BA
:10079C001048F3683A219847C8B9114D33692A4675
:1007AC0011212046984770B929680E4804F0AAF91F
:1007BC0000214FF4004003F07BFDE5E7BDE8F0417C
:1007CC00094804F09FB9094804F09CF9F0E7404649
:1007DC00FAE700BF24580000A75B0000E85B0000AC
:1007EC0010020020C25B00008C5B0000D45B000098
:1007FC00014B1B68184700BF00000020014B18601C
:10080C00704700BF0000002030B585B004460D468F
:10081C0010220021684604F08EFF02238DF802306E
:10082C002A46044B01932146684603F021FF05B08C
:10083C0030BD00BFFD07000080B505460E461746CB
:10084C00984603F04FFD034604F07EFFDFF8189046
:10085C00044649F80030424630463946A84754F819
:10086C00090000F063FC00BF080000002DE9F04710
:10087C00058B04462807904611D4022905F007057C
:10088C0040F0CD80204604F0B3F978B10138218BCB
:10089C00042811D8DFE800F0C3106D8595000129FC
:1008AC000CBF45F0100545F02005258388F3118811
:1008BC00BFF36F8FBDE8F08701F0070AAA4500F07F
:1008CC00A6800027B9463E46A368002B00F0BD80E9
:1008DC0041F00801218388F31188BFF36F8FA16861
:1008EC00002900F0BB800D68002900F0B780D1F81A
:1008FC000480334652462046C047002D76D02B68E4
:10090C0029461D46F0E701F007035A1F012A1BD8A0
:10091C00002221F00701062B276889B2C4E90022C6
:10092C0009D13B4603E0628B013262831B68002BCA
:10093C00F9D141F002012183204604F059F9002835
:10094C007BD041F0200177E0042B0AD121F0070184
:10095C0089B22183204604F04BF910B141F02001FB
:10096C002183218B01F0070AAA4550D00027B946F4
:10097C00AAE7236921F0070141F00601062DD3F8FF
:10098C00009021832DD1B9F1000F40D041F0080126
:10099C00218388F31188BFF36F8F3A492046C847EB
:1009AC0029E021F00701236941F0040189B2042DEB
:1009BC00D3F804902183E6D000273E464FF0040A7A
:1009CC0082E721F00701236941F0050189B2052D69
:1009DC00D3F808902183D6D000273E464FF0050A65
:1009EC0072E700273E464FF0060A6DE72B4687E775
:1009FC00B9F1000FD1D14FF02003EFF3118883F33D
:100A0C001288BFF36F8F238B23F008032383258B6E
:100A1C00EA062ED525F01003238305F00705666939
:100A2C00218B002EBFF66FAF00232768C4E900337B
:100A3C0021F0070141F001012183218B01F0070A0C
:100A4C00AA454FF000097FF43FAF002F9BD041F037
:100A5C000801218388F31188BFF36F8F002FC7D053
:100A6C003D68394633465246204604F0EDF82F4691
:100A7C00F4E7AB067FF51AAF25F02003238305F0CE
:100A8C000705FFE6814C000001F088BD01491022EA
:100A9C000A60704710ED00E072B6404080F3118898
:100AAC00BFF36F8FBFF34F8F30BF62B6BFF36F8F43
:100ABC00704700BF72B6494081F31188BFF34F8F66
:100ACC0020BF80F3118862B6704700BF40B2002887
:100ADC0007DB044A4109012300F01F00834042F860
:100AEC002130704700E100E0054B420900F01F0087
:100AFC0053F82220012303FA00F01040704700BF86
:100B0C0000E100E040B20028A8BF00F1604001F114
:100B1C000101B8BF064B4FEA4111ACBF00F5614073
:100B2C0000F00F00C9B2B4BF195480F8001370471D
:100B3C0014ED00E030BFFFF7FDBF00BF0B4A08B556
:100B4C000B4B22F07F029A60BFF34F8FBFF36F8F76
:100B5C00D3F8882022F47002C3F8882002F088FEB3
:100B6C0003F026FC00F056FA02F0D4FE0000000060
:100B7C0000ED00E0094A0A49936809689967094938
:100B8C0058674B6843F080534B60002383F3118804
:100B9C00BFF36F8F9368986F704700BFE40300201A
:100BAC00705B000000ED00E015498A684FF03000E2
:100BBC001044EFF3098C80E8F01F202080F312889A
:100BCC00BFF36F8F0F4F4FF000664A698A603E602B
:100BDC004FF07004141920680B4C2060506F0023E8
:100BEC00536780F3118804B5104600F0C1FABDE8D4
:100BFC00044002F1300090E8F01F8CF30988704734
:100C0C00E403002004ED00E0180200201EF0040FA5
:100C1C000CBFEFF30880EFF30980816911F8021C17
:100C2C000229FFD001B504F0E4F801BD42F8203CE4
:100C3C00009B42F81C3C0A49019B42F8183C029B61
:100C4C0042F8143C21F001014FF0807342F8043C4F
:100C5C0042F8081C0023203A02654367704700BF26
:100C6C0045080000094A0346906870B113F1160F4D
:100C7C00006E05D0A0F140029A4205D8834203D2FF
:100C8C00814228BF0020704700207047E4030020F9
:100C9C0008B514460A4A0B4B9060026F1A600D4659
:100CAC0000F066FA204685F30988002163B681F3CB
:100CBC001188BFF36F8F00220023FFF7BDFD00BF2B
:100CCC00E40300201802002001B5EFF30580A0F129
:100CDC0010004FEAC0000449014409C99847BDE817
:100CEC00014002490847000038580000590D000027
:100CFC00114B124A2DE9F041D518DFF84480013D23
:100D0C00B5FBF3F55D430F4B08EB0304013CB4FB5F
:100D1C00F3F403FB04540E1B07460B49304604F056
:100D2C00FCFC701942460021083E04F004FD3E67AD
:100D3C0004F10800BDE8F081010000000000000093
:100D4C000400000004000000E8590000044B9968FE
:100D5C005869884203D003494FF080520A607047AB
:100D6C00E403002004ED00E070B5264B15469A6AAA
:100D7C0012F0100F9A6A14BF1124102412F0080FED
:100D8C009A6A18BF1224920706460AD5586B9A6ABB
:100D9C00140634D519B19A6A22F080029A6213248F
:100DAC0001E06FF01500174B9A6A12F0010F9A6A66
:100DBC0018BF142412F0200F9A6A18BF1524D206FB
:100DCC0002D49B6A9B070AD50E4B5B68190506D5A6
:100DDC003146FFF747FF10B180F309880224094B15
:100DEC009A6A920642BF5A6A22F400525A629A6A6E
:100DFC0042F0FF029A6200232B70204670BD6FF008
:100E0C001500CCE700ED00E0134B9A6A12F0007F5E
:100E1C009A6A14BF1E201D2012F0807F9A6A18BF98
:100E2C001F2012F4002F9A6A18BF212012F4802F71
:100E3C009A6A18BF222012F4003F9A6A18BF232026
:100E4C0012F4803F9A6A6FEA02426FEA12429A6287
:100E5C0018BF2420704700BF00ED00E010B5194BFF
:100E6C000246986A9C6A10F4805F14BF1720162003
:100E7C0014F4006F9C6A18BF1820A40509D5986B50
:100E8C00986A000404D51AB19A6A22F400429A6254
:100E9C0019200C4B9A6A12F4806F9A6A18BF1A20A8
:100EAC00D2050CD49B6A13F4005F18BF1C20054AB2
:100EBC00936A43F47F43936200230B7010BD1B2095
:100ECC00F5E700BF00ED00E0F0B5484B5B688BB078
:100EDC000446C3F30803002585F31188BFF36F8F15
:100EEC0002F07F40B0F17F4F11D102F00C000828C6
:100EFC000DD010074CBF0C4601250022033B8DF88A
:100F0C000720032B05D8DFE803F0246367602C4629
:100F1C00F3E700239DF80720CAB902AE04F12007BD
:100F2C0020686168324603C20834BC421646F7D1C9
:100F3C00099A002D54D0C2F3080121B96FEA52224C
:100F4C006FEA4222099202A9184603F050FF0BB037
:100F5C00F0BD264BDA6A9107DBD4DA6A002AD8DBBB
:100F6C00DA6A5200D5D55A69A16942F480725A6185
:100F7C00BFF34F8FBFF36F8F5A6931F8021C22F405
:100F8C0080725A61BFF34F8FBFF36F8F4DF60272B1
:100F9C0091420AD09A6AD2B24AB10DF107020121EC
:100FAC002046FFF7E1FE0346B4E72368B2E79A6AEE
:100FBC0012F47F4F05D00DF107010120FFF74EFF12
:100FCC00F1E79B6AB3F5803FA3D3FFF71DFFEAE778
:100FDC000DF107020021E3E70DF107010020EDE719
:100FEC0022F4FF7222F00102ACE700BF00ED00E03A
:100FFC00024A536943F010035361704700ED00E05F
:10100C00EFF30880EFF3098101B57246FFF75CFF3F
:10101C0001BD00BF044800232021C2180133272B37
:10102C0082F80013F9D1704700E100E0002080F352
:10103C001488BFF36F8FFFF727FD00200D49086060
:10104C00BFF34F8F0C4880F3088800F03DF8202048
:10105C0080F3118809484FF40461401880F3098823
:10106C00EFF314800221084380F31488BFF36F8FD1
:10107C00FFF764FD94ED00E000160020400800200E
:10108C00BFF34F8F0549064BCA6802F4E062134365
:10109C00CB60BFF34F8F00BFFDE700BF00ED00E05A
:1010AC000400FA050749D1F890200023C2F3072267
:1010BC001846934200DB7047C1F89830C1F8A00085
:1010CC000133F6E700ED00E008B572B6002383F3B8
:1010DC001388FFF7E7FF144B4FF0FF32C3F8802063
:1010EC00C3F88420C3F88820C3F88C20C3F8902060
:1010FC00C3F89420C3F89820C3F89C20C3F880212F
:10110C00C3F88421C3F88821C3F88C21C3F890213B
:10111C00C3F89421C3F89821C3F89C2162B6BFF39D
:10112C004F8FBFF36F8F08BD00E100E0084B9B6849
:10113C0083420BD1EFF3058343B1064B5A6842F05F
:10114C0080525A605A6A22F400425A6203F0D0B8B4
:10115C00E403002000ED00E0024B034A03480121A8
:10116C0000F070B80000012000000020F8590000C9
:10117C00026E054B403A1A60044A4021C3E9011241
:10118C001846012100F068B81C02002000000B1565
:10119C00F0B5204E00258D4239DA446874B353B152
:1011AC0004F1FF3C14EA0C0F2FD11F2C2DD907682A
:1011BC001CEA070F29D1202C0768D0F808C05FFA69
:1011CC0082FE1ED9B4F1004F1DD8013CB4FA84F450
:1011DC00C4F11F046400BEF1070F4CEA040C14D8D0
:1011EC0027F01F04144344F01004C6F89820C6F8E6
:1011FC009C404CF00104C6F8A040013201350C3083
:10120C00C9E70824E7E73E24E5E76FF0150210462E
:10121C00F0BD00BF00ED00E0044B0522C3F89420A4
:10122C00BFF34F8FBFF36F8F704700BF00ED00E02F
:10123C00BFF35F8F024B0022C3F89420704700BFAE
:10124C0000ED00E010B5034C01232278FFF7A0FF5E
:10125C00207010BD1404002008B5094A0023127830
:10126C00FFF796FF10F1160F02D0064A072800DD93
:10127C0008BDC2F89800C2F8A0300130F6E700BFF4
:10128C001404002000ED00E014490868082810B58B
:10129C0021D8FFF7CDFF124C49680022904201F192
:1012AC000C0105D10F4B1870FFF7B6FF002010BDD5
:1012BC00C4F8982051F80C3C23F01F03134343F05F
:1012CC001003C4F89C3051F8043C43F00103C4F8FB
:1012DC00A0300132E2E74FF0FF30E8E7045A00009B
:1012EC0000ED00E01404002008B5024B1B68984781
:1012FC00002008BD28020020034B044A1860937894
:10130C0043F0020393707047280200200400002071
:10131C0008B50649064821F00701C1F1005202F553
:10132C00803203F028FC002008BD00BF53160020BB
:10133C0040160020044A0123C2F840354FF0804289
:10134C000020C2F87835704700E0014020B1034B13
:10135C00800143F001031847704700BFF0590000AB
:10136C00084B70B5C31A0D4607499B1004465943E8
:10137C000648402203F06DFD2B4601462046BDE891
:10138C007040184740020020B76DDBB6C057000014
:10139C0073B50C4C0C4A4023041B00930D460B46B2
:1013AC000A49A41061430646094803F07FFD011E5B
:1013BC0005DA30462B4602B0BDE87040184702B043
:1013CC0070BD00BF40020020254F0000B76DDBB69A
:1013DC00C057000010B54FF02003EFF3118483F3D6
:1013EC001288BFF36F8F074A136823F00201DB07E3
:1013FC00116002D4012003F050FF84F31188BFF375
:10140C006F8F10BD90020020002270B501210446A0
:10141C001046FFF777FB0F4801F0A8FA0E4B9842E5
:10142C0015D103F02DFF26690C49304603F030FC32
:10143C0000280BDB012535642469084904F11C00E4
:10144C0003F026FC002801DBE564002070BD6FF082
:10145C000400FBE7A11400000000AD0B245A0000AF
:10146C0070B501460C2309484B43C418D4E90E56F9
:10147C00403300221844A26303F0D8FC2DB132464D
:10148C002B460348BDE87040184770BD4002002051
:10149C00C057000010B1012804D07047034B1B6CDF
:1014AC005B0701D1FFF7DCBF704700BF4002002093
:1014BC0008B54FF02003EFF3118183F31288BFF3CB
:1014CC006F8F124A136843F002001060DA0708D4D9
:1014DC0081F31188BFF36F8F0120BDE8084001F044
:1014EC0055BA4FF08043D3F80C24D3F80C34DB07F7
:1014FC00EED5074803F09AFC81F31188BFF36F8F88
:10150C000020BDE80840FFF7ABBF00BF90020020F1
:10151C00800200201FB500220123CDE90223094AD5
:10152C00CDF800D06B46CDF804D003F0EEFC0028CB
:10153C0005DB4FF480420023684602F0CFFB05B078
:10154C005DF804FB3D4F000010B5074C23782BB918
:10155C004FF4A57003F0BBFF01232370BDE81040CE
:10156C00002001F013BA00BF15040020024AC3B2D8
:10157C001C2003FB00207047400200202DE9F041A5
:10158C003849BFF35B8F0746012251E8003F41E821
:10159C0000200028F9D1BFF35B8F33B932493348AF
:1015AC004B60CB608A6003F086FB7B1E012B2BD833
:1015BC00012F07D14FF08043D3F81C3403F0030301
:1015CC00012B21D003F097FF0546F8B9284B1B7867
:1015DC00E3B14FF080430222C3F808230646DFF83C
:1015EC0094804FF08044D4F81824D4F81834D203E3
:1015FC0016D503F00303012B01D0012F10D15DB3DD
:10160C0086F31188BFF36F8FBDE8F0814FF0200394
:10161C00EFF3118683F31288BFF36F8F0125DEE79A
:10162C00ADB13046FFF746FAD4F81835002BDAD1B5
:10163C00D4F80421002AD6D0C4F80431D4F80431EB
:10164C000123C4F81835C8F88031A360CBE700211A
:10165C00212002F02DFEE7E74FF080430222C3F871
:10166C000423D1E73C0200202C0200205C02002065
:10167C002808002000E100E008B5074803F02CFF23
:10168C0038B10648FFF738FE0448FFF7B7F80020DA
:10169C0008BD6FF01200FBE7E8570000AD16000024
:1016AC000A2838B5074D044604D1AB680D215B6898
:1016BC0028469847AB6803485B68E1B298472046D8
:1016CC0038BD00BFE857000030B54068057B01F01D
:1016DC001F04B2F5001F85B044EA451405D120461D
:1016EC0001F03CFC002005B030BD0025B2F5800FA8
:1016FC00CDE9025514D1B3F1007F0CBF04230523AF
:10170C008DF808300023194602AA204601F05AFA37
:10171C00214B984239D10121204601F0D3FBE1E75E
:10172C00B3F1C06F26D0B3F1007F14BF01230223A5
:10173C008DF80830836823FA01F111F00101E1D131
:10174C00B2F1A07FDED104F01F03620903F5E07350
:10175C001ED14FF0A04252F82330DB07D2D40DF14A
:10176C0007052946204601F059FB0C4B984203D043
:10177C000395C7E70323DBE7284601F09DFB064BE7
:10178C009842F5D06FF00B00ADE76FF01500AAE7AB
:10179C0051F82330FFDE00BF0000AD0B0400AD0B91
:1017AC0010B501F079FB044668B901F04DFB084B0C
:1017BC0098420AD10748214601F02AFB224605210E
:1017CC000620FFF79FF9002010BD6FF00400FBE727
:1017DC000000AD0BE5170000430970B507D10B4BAA
:1017EC00596821B101250C68094E854001B970BDBD
:1017FC008A682A4002D04B68304698471CB123684F
:10180C0021461C46F2E72346FAE700BF940200206B
:10181C00D45700002DE9FF4147683B7B01F01F05C1
:10182C0045EA43150E4628460DF10701144601F012
:10183C00F5FA14F4403F80460DD1284601F0B4FB74
:10184C003D4B984503D19DF8070001F02FFB00207C
:10185C0004B0BDE8F0810023194602AA2846CDE960
:10186C00023301F0AFF9344B984214D1804503D1C7
:10187C009DF8070001F01AFBA3034ED540F2063386
:10188C002340B3F5837F1AD00DD8062B18D005D87A
:10189C00B3B1022B33D06FF01500D9E7B3F5807FCD
:1018AC00F9D101230CE040F20222934229D0B3F586
:1018BC00407F28D0B3F5007FEDD1022300E0072351
:1018CC008DF8083084F48033C3F30043E0068DF8C0
:1018DC00093054BFC4F34013032321038DF80A309D
:1018EC0013D57A680123B340C2F80835002202A947
:1018FC00284601F017FA104B9842A8D0CBE70423E6
:10190C00DEE70523DCE70323DAE7620341BF0123AB
:10191C007A68B340C2F80C35E8E7E3064FF00003F1
:10192C0054BFC4F3401403241A4602A928468DF868
:10193C00084001F047F9DEE70000AD0B08B543683D
:10194C001B68D3F80805D3F80C1501F095FE034B72
:10195C00984214BF6FF00F00002008BD0000AD0BC3
:10196C0037B50446002201210320FFF7CBF863684A
:10197C009D6901AA0021284603F04BFB002814DBCB
:10198C00019B2A681979186800F0B0F800280CDB64
:10199C0060682369064A00F1080101F007FD054B58
:1019AC00984214BF6FF00F00002003B030BD00BF91
:1019BC00C51900000000AD0B0378012B08D0022BD9
:1019CC0008D04BB9054B0B6201F1100002F062B963
:1019DC00034BF8E7034BF6E7034BF4E70000AD0BC2
:1019EC000100AE0B0200AE0B0100AD0B2DE9F04F68
:1019FC008BB005460C4690460193476806694FF03C
:101A0C00FF324FF0FF33304602F068F906F1100A4E
:101A1C0000220023504602F061F9384601F026FD01
:101A2C00DFF8C0B04FF00009C14501D300242EE00F
:101A3C00237A039313F008014DD112220DF11600F5
:101A4C00029103F078FE039B60680199069003F005
:101A5C00010220688DF8151013F0020F02998DF811
:101A6C00142008901DD108F1FF334B4502D9237D7A
:101A7C005B0718D57ABB202205A9384601F022FD58
:101A8C00584512D0184B984228D06FF004043846B1
:101A9C0001F0FCFC304602F0FDF820460BB0BDE82E
:101AAC00F08F0A46E8E74022E6E74FF48042002335
:101ABC00504602F013F930B1384601F0E7FC2846E5
:101ACC00FFF73CFFE1E7336A5B4504F10C04DCD122
:101ADC0009F10109A8E76FF08504D8E76FF00F044E
:101AEC00D5E700BF0000AD0B0B00AD0BF0B5524DB0
:101AFC0000EB8101814201D10020F0BD046804F0AB
:101B0C007F03C4F343267F2B4FEA144408BF4FF0E6
:101B1C00FF33192C7ED8DFE804F00D13191C1F2598
:101B2C001C7D7D7D7D345D7D7D7D7D7D7D7D7D7DA3
:101B3C006074777AC2F80C355F1C57D10430D9E742
:101B4C00C2F814355C1CF9D0002458E0C2F80835F2
:101B5C00F2E7C2F81035F5E75F1CC2F80835EDD096
:101B6C00002404E05C1CC2F80C35E7D001245F09AA
:101B7C0053D101274FF0A04C07FA03FECCF80CE52B
:101B8C0008E0C2F80835002EDCD15C1CD6D000244D
:101B9C0027460626D0F800E00EF4005CBCF1000FDE
:101BAC001CBF0124002703F01F0C5B093DD14FEA39
:101BBC008C0C0CF1A04CCEF3C11EDCF800372B4082
:101BCC0043EA8E0343EA06233B4343EA4403CCF83F
:101BDC000037B3E7C2F80C35D5E7C2F860355F1CA7
:101BEC000468ABD0C4F38034002CBFD05C0918D18E
:101BFC0001244FF0A04704FA03FCC7F808C5274698
:101C0C00C8E7C2F86435EAE7C2F86835E7E7C2F816
:101C1C006C35E4E76FF085006FE70023C3F80C35F3
:101C2C00FFDE0023C3F80835FAE70CF5E07C00234F
:101C3C0053F82C30F4E700BFF0F8FCFF014B012205
:101C4C001A60704700C000400C2903690BD15B6A15
:101C5C00064907484B4393FBF0F100FB113311602D
:101C6C005360002070476FF08500704790D00300E0
:101C7C0040420F00044B00690022C3F80021D3F846
:101C8C00003102F007B800BF00C000407FB5056905
:101C9C00AB6A63B33A2901D00C292BD105F110069C
:101CAC004FF0FF324FF0FF33304601F03DFF134B46
:101CBC000193A86A0323002469460394029302F05B
:101CCC00FAFF4FF0FF324FF0FF33284602F006F8D0
:101CDC00A86A03F048F80A4BD3F808256A62012277
:101CEC005A60304601F09AFF204604B070BD6FF088
:101CFC000A00FAE76FF08500F7E700BF491C000007
:101D0C0000C0004010B504690020FFF72FFCA06252
:101D1C004FF0FF320021204603F00EFC04F11000BE
:101D2C0003F003FC002201210C20FEF7EBFE0C203B
:101D3C00FEF7CCFE024B0122C3F80423002010BD99
:101D4C0000C000402DE9F0414368066986B00546A5
:101D5C00186803F0C1FB002850D00DF106020C21CD
:101D6C00284603F08DF9044628B16FF00404204690
:101D7C0006B0BDE8F081BDF80630B3F5C37FF4D1F1
:101D8C006F6801460E220DF10A0003F0D4FCBB7AF9
:101D9C002A699901032B2CD8DFE803F02E0227299E
:101DAC00184B9361FB7A7A7AADF808105B0043EA22
:101DBC00821343F40063ADF80E303B7A1B02ADF88E
:101DCC0010300DF108080027F9B238F8022B28461C
:101DDC0003F0A4F90137082F44EA0004F4D1002CD5
:101DEC00C3D1304603F0A1FBC1E7074BD9E7074B42
:101DFC00D7E74FF07E53D4E7054BD2E76FF01204D0
:101E0C00B5E700BF8FC2753D8FC2F53C8FC2753CE4
:101E1C008FC2F53D70B54B79012B20D18B79032BFB
:101E2C001DD1CD790DB1012D19D10A7912B1022A2A
:101E3C0015D10E220B684468B3F5164F266864D092
:101E4C002BD8B3F5165F63D014D8B3F5966F61D069
:101E5C0008D8B3F5967F60D0B3F5167F60D06FF0DD
:101E6C00850051E0B3F5166F5DD0B3F5965FF6D1F2
:101E7C00374B3CE0B3F5E14F58D007D8B3F5615F71
:101E8C0056D0B3F5964FEAD1324B30E047F61224D8
:101E9C00A342E4D14FF4000329E0B3F5613F49D0EC
:101EAC0013D8B3F5963F48D009D84DF6C024A342B9
:101EBC0045D0B3F5614FD2D14FF46B0317E0B3F5B6
:101ECC00E13FCCD14FF0EB7311E0B3F5612F39D07A
:101EDC0008D8214CA34238D0B3F5E12FBFD14FF035
:101EEC00E86304E01D4CA342B9D14FF08053046960
:101EFC00C6F8243543681B682A43C3F86C2503C90C
:101F0C00231D83E80300002070BD4FF41D03EEE792
:101F1C00134BECE74FF49E23E9E74FF4A033E6E7CD
:101F2C004FF41C33E3E74FF41D23E0E70D4BDEE7E2
:101F3C000D4BDCE74FF06C73D9E70C4BD7E74FF444
:101F4C006503D4E74FF07063D1E74FF08063CEE7C1
:101F5C0000B0130000A04E0090D0030040420F00D0
:101F6C000050270000C0750000F03A0000903A01C4
:101F7C002DE9F7438046002201210220FEF7C2FD25
:101F8C000220FEF7A3FDD8F80470D8F810603C6866
:101F9C000021C4F80015C6F80080D7F80C9001AAEF
:101FAC00484603F036F8051E4CDB019BD9F800209F
:101FBC0019791868FFF79AFD051E43DB311D404661
:101FCC00FFF728FF054600283CD17B68990712D5FE
:101FDC0006F1180001F0D2F81E4B984236D1307E33
:101FEC0004F10C0204F5907103F040F9337E0120EA
:101FFC00984000F053FC0823C4F800353B7A53B9E1
:10200C00C4F81031D4F810317369C4F83435012395
:10201C00C4F8383523607B689A075CBF4FF4807333
:10202C00C4F804337B68DB0644BF4FF48003C4F868
:10203C0004333369C4F844350023C4F8483501230C
:10204C00A360E360284603B0BDE8F0836FF004059D
:10205C00F8E700BF0000AD0BF8B5044607690D4664
:10206C0003F049FAB0B92E4B1B789BB1642660681B
:10207C0003F092F800BB012003F0F6F8013EF6D114
:10208C000021212002F014F9F0E786F31188BFF348
:10209C006F8FF5E74FF02003EFF3118683F312886F
:1020AC00BFF36F8F6068314603F076F890B986F312
:1020BC001188BFF36F8FEDE74FF02003EFF311861C
:1020CC0083F31288BFF36F8F6068314603F064F8B6
:1020DC000028DAD03B691D70626838691368C3F850
:1020EC0044050120C3F848050020C3F82001D3F8AB
:1020FC002051C3F858015268D3F85801D20608D5BC
:10210C00626812680820C2F800054FF48002C3F818
:10211C00042301229A6081F31188BFF36F8FF8BDFD
:10212C002808002070B5012383400E4ABFF35B8F53
:10213C00DC4352E8001F01EA040542E80056002E79
:10214C00F7D1BFF35B8F4FF4803282400648C0F862
:10215C000823BFF35F8FBFF36F8F0B4214BF0120B7
:10216C00002070BDEC0200200010014070B40E493C
:10217C00D1E90034D01AC31844F1000422F07F4690
:10218C00C1E90034A6F50013B3F5400F09D2074B93
:10219C001B681A0A1B069C19054B42F10005C3E982
:1021AC00004570BC02F0DAB9E0000020F00200201B
:1021BC00E800002011B3BFF35B8F0123104A83406A
:1021CC0052E800CF4CEA030C42E800C10029F7D1D9
:1021DC00BFF35B8F0B4A4FF480338340C2F8043358
:1021EC00094BBFF35B8F1B68BFF35B8FC340DB07EF
:1021FC0042BF064B4FF40032C3F80021704700BFBA
:10220C00EC02002000100140E802002000E100E098
:10221C000D4B1868010A0006BFF35F8F0B4BD3F808
:10222C000435181841F10001B3F5801F0AD2084B90
:10223C00D3E90023904271EB030303D210F18070B9
:10224C0041F10001704700BFF00200200010014076
:10225C00E80000202DE9F04F85B016461F469DF88A
:10226C0040A00446FFF75EFF0190FFF7D1FFB0429C
:10227C0071EB070354D23E4B301A67EB01019842C5
:10228C0071F100014FD23B4B03EB0413D3E9022352
:10229C009F4208BF96425ED037494FF4803804F114
:1022AC00500508FA04F8AD00C1F848832046ADB2D9
:1022BC0002F0BBFF26F07F4B05F1804504F5A873B7
:1022CC0005F58835DC464FF003090293029A2CF091
:1022DC007F4341F82230C1F84483D1F80435274AB2
:1022EC006FF00200C01A604420F07F40904232D957
:1022FC00286868B1D1F804350393A3EB0B0020F0E8
:10230C007F40B0F5000F26D9204602F08EFF039BCC
:10231C00BAF1000F07D109EB030C09F10109D5E75C
:10232C00BAF1000F09D06FF0150520460199FFF79F
:10233C0041FF284605B0BDE8F08F0123104ABFF3DA
:10234C005B8FA34052E8000F184342E800010029BC
:10235C00F8D1BFF35B8F07490E98230101EB0412F0
:10236C00C8500F9B5360C2E902670025DDE700BF30
:10237C0001008000D000002000100140FDFF7F0014
:10238C00E80200207FB51C4C1C4BC4F80833C4F881
:10239C0048331B4B00254FF0FF304FF0FF31C4F892
:1023AC000855C3E902014FF48033C4F80433154BCC
:1023BC0002264FF400320121C4F804631120C3F843
:1023CC0080212A46FEF79EFB1120FEF77FFB0E4A6A
:1023DC000123A360236013600C4B0D4A0093CDE9DD
:1023EC00015500232846FFF735FF3046FFF7C6F8A6
:1023FC00284604B070BD00BF0010014003000F0060
:10240C00D000002000E100E0EC0200207921000067
:10241C00FFFF7F002DE9F7432F4CD4F804339907C5
:10242C000BD5D4F8043143B12C4A0023C4F8043141
:10243C00D4F80431136801331360D4F80433DA038D
:10244C002AD5BFF35B8F264B53E8002F22F00101F6
:10245C0043E800100028F7D1BFF35B8FD30702D4F9
:10246C00D4F84031C3B10025C4F84051D4F8403100
:10247C00FFF7CEFE4FF02003EFF3118283F31288A7
:10248C00BFF36F8F174BD3E90267B042B94106D245
:10249C0082F31188BFF36F8F03B0BDE8F0834FF068
:1024AC00FF384FF0FF39C3E90289D3E900101D60F2
:1024BC004FF48033C4F84833C4F84051D4F8403159
:1024CC0082F31188BFF36F8F0029E5D0009032465C
:1024DC003B4628468847DFE700100140F002002009
:1024EC00E8020020D00000201FB5431C23D0012897
:1024FC0023DD134A134B9042D4BF04461C46FFF70E
:10250C0087FE114B0F49D3E90023801AB0F5000F59
:10251C0028BF002404448C4228BF0C46A2180B4947
:10252C0000914FF00000CDE9010043F10003FFF7EB
:10253C0091FE04B010BD034CE1E70124DFE700BFBE
:10254C00FEFF7F00FFFF7F00E000002079210000EC
:10255C0008B5FFF75DFE024B1B68C01A08BD00BF33
:10256C00E00000204FF0704393F8E02F062A09D1C9
:10257C00D3F8E83FC3F30313033B042B02D8024AFE
:10258C00D05C704700207047DB5C0000024AD2F838
:10259C000034002BFBD0704700E0014010B502F076
:1025AC0054FE40B14FF080538E4AD3F82433C3F31A
:1025BC000423C2F84035FFF7D5FF10B18A4B8B4A84
:1025CC005A6702F042FE48B14FF080534FF0804200
:1025DC00D3F84432C3F34233C2F83C35FFF7C2FFA1
:1025EC0030B1834AD2F8FC3023F08073C2F8FC304F
:1025FC0002F02BFE40B14FF080430022C3F80C21B7
:10260C00C3F81021C3F83825FFF7ACFF20B14FF009
:10261C0080430322C3F8A025FFF7A4FF60B1754BDC
:10262C000522C3F810260122C3F888260022C3F81D
:10263C0018263F22C3F814264FF08053D3F83021CC
:10264C00511C09BF4FF07043D3F8343193F8E02F8D
:10265C00D3F8E83F08BFC3F30313062A4DD1033B5D
:10266C00042B03D8644AD35C002B46D04FF0805225
:10267C00624BD2F80414C3F82015D2F80814C3F82E
:10268C002415D2F80C14C3F82815D2F81014C3F87A
:10269C002C15D2F81414C3F83015D2F81814C3F84A
:1026AC003415D2F81C14C3F84015D2F82014C3F812
:1026BC004415D2F82414C3F84815D2F82814C3F8DA
:1026CC004C15D2F82C14C3F85015D2F83014C3F8AA
:1026DC005415D2F83414C3F86015D2F83814C3F872
:1026EC006415D2F83C14C3F86815D2F84014C3F83A
:1026FC006C15D2F84424C3F8702502F0A6FD48B13D
:10270C004FF080534FF08042D3F8583203F04F0310
:10271C00C2F8E43E02F099FD48B14FF08043D3F883
:10272C000024D20744BF6FF00102C3F800244FF01D
:10273C008053D3F83021062A26D1D3F83431033B09
:10274C00042B02D82E4AD35C63B12E4AD2F83C3704
:10275C0043F48063C2F83C374FF08053D3F83031E8
:10276C00062B11D14FF08053D3F83431033B042B9B
:10277C0002D8254AD35C3BB14FF01023D3F8082282
:10278C004FF08043C3F858254FF01023D3F80022A4
:10279C00002A03DBD3F80432002B22DA1B49012375
:1027AC004FF01020C1F804351524FFF7EFFEC0F8E8
:1027BC000042FFF7EBFEC0F80442FFF7E7FE0023F0
:1027CC00C1F80435FFF7E2FEBFF34F8F0849104BF9
:1027DC00CA6802F4E0621343CB60BFF34F8F00BFB3
:1027EC00FDE710BD0030014000C007400DF0ADBA50
:1027FC0000ED00E000500040D65C000000C000403E
:10280C00D15C000000100040CC5C000000E00140F6
:10281C000400FA0530B50468CCB1BFF35B8FB4FA91
:10282C0084F3C3F11F03DBB201229A4024EA0202B3
:10283C0050E8005FA54204D140E8002CBCF1000F29
:10284C00F6D1BFF35B8FE6D102480B7030BD024866
:10285C00FCE700BF0000AD0B0200AD0B10B5036828
:10286C00CB40DB0714D401238B400268BFF35B8F92
:10287C0043EA020150E8004F944204D140E8001CA6
:10288C00BCF1000FF6D1BFF35B8FEED1014810BD48
:10289C000148FCE70000AD0B0400AD0B014BC3F885
:1028AC000405704700F00140F7B5044618B1012843
:1028BC0023D003B0F0BD4FF080430222C3F80823AD
:1028CC00C3F80401D3F804210122DA60064601237F
:1028DC008DF8073042F210754FF08047D4B1012CBF
:1028EC00E7D1D7F80C3403F48033AEBB83B30120AB
:1028FC0002F0BAFC013DF4D12AE04FF080430022F3
:10290C00C3F80803C3F80021D3F8002158600DF177
:10291C000706DCE7D7F8183403F480333EB9002BF4
:10292C00C7D0012002F0A0FC013DF3D1C1E7D7F8DC
:10293C00182402F003023260002BBAD09DF8070075
:10294C00012803D102F090FC013DC7D1012CB0D17C
:10295C00054B00225A71ACE7D7F80C2402F00102A7
:10296C003270002BEAD1F3E7F4020020044B1A7901
:10297C0022B9012218609A800248704702487047B9
:10298C00F40200200000AD0B0C00AD0B38B510B1FB
:10299C00012843D038BD4FF08042D2F81814D2F839
:1029AC001834C8032ED503F00303012B04D013B144
:1029BC000020FFF779FF00234FF08042C2F8183552
:1029CC000023C2F80431D2F804310223C2F80433D4
:1029DC00184AD2F8FC0040F08073C2F8FC30164B59
:1029EC001C6844F0010119605D685968491BB1F518
:1029FC000A5FFAD31C604FF08043C2F8FC0001223E
:102A0C009A60C7E7D2F81434D907D4D5D2F81C345D
:102A1C009B07CDD40223C2F80433BBE74FF08043AD
:102A2C000022C3F80021D3F80021C3F80403186076
:102A3C00B0E700BF00ED00E0001000E010B54FF073
:102A4C008043D3F800216AB10022C3F80021D3F8E7
:102A5C0000210122C3F80823114B587910B95A717F
:102A6C001B6898474FF08043D3F8042172B10022C1
:102A7C00C3F80421D3F80421D3F81824D3F818246C
:102A8C00920704D10122C3F818259A6010BD0222C6
:102A9C00C3F80823024BBDE810401B6801201847FF
:102AAC00F4020020C0B2034B083033F81000C0F31E
:102ABC004010704758000020C0B2034B083033F868
:102ACC001000C0F34000704758000020C0B2034B08
:102ADC00083033F81000400B704700BF580000203E
:102AEC0070B500F108030C4C34F81330DA050546C8
:102AFC000E4607D5C3F3432304EBC30254F833301B
:102B0C0052689847A3682BB1E26831462846BDE865
:102B1C007040184770BD00BF5800002010B4C0B200
:102B2C00114A083032F81030D9051BD5C3F34321B4
:102B3C0023F4F85322F8103002F10E04002034F87C
:102B4C00023F13F4807F03D0C3F34323994209D08F
:102B5C0001302028F3D1002342F83130034810BC57
:102B6C00FFF77CBE10BC704758000020AC00002062
:102B7C00F0B50146104A114C00200125064602F121
:102B8C004043A3F5C2439B0805FA03F3194204D052
:102B9C00176817B11660176818430432A242EED1B9
:102BAC00074BD3F87C2132B10022C3F87C21D3F837
:102BBC007C3140F00040F0BD0061004020610040DD
:102BCC0000600040F0B5044685B017461D4601B3C1
:102BDC00FFF772FF18B12046FFF764FF08BB002314
:102BEC00CDE900338DF80E308DF80F300DF10F025A
:102BFC000B4620460DF10E0102F05BFBE3B244499B
:102C0C00083331F8132022F0020242F0010221F8BD
:102C1C00132057B320463E787A68FFF74DFF10B16A
:102C2C00C2B13C4823E0E3B2DFF8E4C008333CF81F
:102C3C00131021F02001C904C90C2CF813104AB14F
:102C4C00032EEED87A6817789EB9334B07F5A27726
:102C5C0043F82760E3B22E49083331F8132022F0F1
:102C6C001C0242EA860221F813203DBB2B4805B01A
:102C7C00F0BDBA0002F1804202F5C04241EA473190
:102C8C00D2F8100520F00300C2F81005D2F8100598
:102C9C0020F4473020F44070C2F81005D2F810E54B
:102CAC00200200F4F85040EA0E0040EA064041F0E1
:102CBC0020012CF81310C2F81005CBE7D5E90067FA
:102CCC002046FFF72BFF002ED0D0114DD5E9002365
:102CDC00964201D19F4219D011480DF10F01FFF717
:102CEC0099FD0E4B9842C2D19DF80F2045F83260E9
:102CFC00E4B205EBC20308345F6035F8143043EAE4
:102D0C00422343F4807325F81430AFE70022EDE73B
:102D1C00580000200400AD0B006000400000AD0B1B
:102D2C00AC000020F0B5044685B0164629B3FFF779
:102D3C00C3FE20B92046FFF7B5FE00285FD1E5B2EF
:102D4C00304F083537F8153013F01C0F02D04B7884
:102D5C00012B54D001238DF80F300023CDE9001343
:102D6C004A1C8B1C20460DF10F0102F0A2FA37F819
:102D7C00153043F0030327F8153016B9224805B077
:102D8C00F0BD2046FFF798FEC8B3E5B21D4F96F88C
:102D9C0000C00835614637F81500890020F0200086
:102DAC0001F18041C00401F5C041C00C27F81500A9
:102DBC000023C1F810357278002ADFD0D1F8103515
:102DCC00B67823F4981323F4F853C1F81035120491
:102DDC002302D1F810E502F4403203F4F853134304
:102DEC00320543EA0E0302F4801240EA4C301343DE
:102DFC0040F0200027F81500C1F81035BEE7034855
:102E0C00BDE700BF580000200000AD0B0400AD0B67
:102E1C00014BC3E9020170475800002008B5024677
:102E2C00FFF740FE40B1D2B2044B0548083233F8EC
:102E3C0012305B0B0B7008BD0248FCE758000020F9
:102E4C000000AD0B0400AD0B70B50F4C94F858603E
:102E5C00BEB90E4D4022314604F1100002F06BFC5D
:102E6C00C5F87C610620D5F87C31FDF72FFE4FF0BC
:102E7C000043C5F804330648012384F858306365D1
:102E8C0070BD0448FCE700BF580000200060004003
:102E9C000000AD0B0500AD0B034B93F85800003848
:102EAC0018BF0120704700BF5800002001460148A0
:102EBC00FFF7D4BCA800002001460148FFF7AABCCC
:102ECC00A800002037B50446FFF7ECFD08B32046F8
:102EDC00FFF7F2FD0546E0B92046FFF7F7FD03B218
:102EEC009B0003F1804202F5C24203F1804303F5DB
:102EFC00C04315601268D3F8102542F00102C3F8E4
:102F0C00102521B1134A01238340C2F8043303B0C6
:102F1C0030BDE3B2104A083332F81330C3F38203E6
:102F2C00042B12D0052B12D001A8019402F0B7F992
:102F3C00019BD0F81015D94001F001010231204657
:102F4C0003B0BDE8304002F0FDB90321F7E70221E0
:102F5C00F5E700BF006000405800002008B50246AD
:102F6C00FFF7A0FDC0B11046FFF7A6FDA0B91046B3
:102F7C00FFF7ACFD0B4A01238340C2F8083303B2C0
:102F8C009B0003F1804303F5C043D3F8102522F0D6
:102F9C000302C3F8102508BDBDE808400021104607
:102FAC0002F0D0B90060004073B5C5B2174E0835B9
:102FBC00044636F81530DB0726D5FFF7CFFF204641
:102FCC00FFF770FD40B12046FFF780FD104B00F578
:102FDC00A270002243F820202046FFF79FFD00231B
:102FEC0001A826F81530019402F059F9019B00EB69
:102FFC008300084BD0F80027134043F00203C0F8BD
:10300C000037054802B070BD0448FBE758000020AB
:10301C0000600040F0F8FCFF0000AD0B0400AD0BAD
:10302C002DE9F347534BD3F80403C0B240F00040F2
:10303C00FFF79EFD051E1ADA4FF0A043DFF838812A
:10304C00D3F820250092C3F820250127009CA4B9B1
:10305C004FF00040FFF78CFD4FF0A042D2F8203526
:10306C000093C2F82035002BEFD125F00045012448
:10307C00002D66D102B0BDE8F08794FAA4F4B4FA3E
:10308C0084F4E00804F1080304F0070238F8139004
:10309C001DF80030019407FA02F223EA02030DF83E
:1030AC00003001A802F0FBF8019B03F5E0734FEA36
:1030BC00990150F82360C9F3820A4B07D146C6F335
:1030CC00014623D520465146FFF70AFD01A801947D
:1030DC0002F0E5F8019B03F5E073F6B250F82330EB
:1030EC00C3F301439E4207D10021204602F02AF986
:1030FC003146204602F026F901A8019402F0CFF8DF
:10310C00019B07FA03F3C0F820359FE7022E0CD180
:10311C000321204602F016F90AF00503012BEBD12E
:10312C0049462046FFF7DCFCE6E70221204602F088
:10313C0009F9BAF1030FF3D0032EDDD1BAF1020F66
:10314C00EDE795FAA5F3B3FA83F304FA03F29B00C7
:10315C0003F1804303F5C04325EA0205D3F81005BB
:10316C00D3F81015C0F30420C1F30141FFF7B8FCEC
:10317C007EE700BF00600040580000200146014877
:10318C00FFF748BBB4000020CB7B10B433B9D1E9B6
:10319C0000420368C3F80845C3F80C2503688A6825
:1031AC00C3F8242503793C225343054AD3582BB149
:1031BC00006810BC40F30730FDF788BC10BC7047AA
:1031CC00FC02002013B53B4B01930023C0F80431E3
:1031DC00D0F80421C0F82431D0F82421C0F81C31D7
:1031EC00D0F81C21C0F80831D0F80821C0F8003202
:1031FC004B6381F82F300123036291F82D209A4202
:10320C0018BF83604B6B8A6A934204460ED24A6A9B
:10321C00D35CC0F81C350B6803B340F286238B607B
:10322C008B682548C4F8043302B010BD91F82C30DB
:10323C0013B10123C361EEE70B6A13F0400F4FF09B
:10324C00010316BFC361436181F82D30E3E72046CB
:10325C0002F087F828B1019B013B0193019B002BE5
:10326C00F5DC91F82F305BB91348019B002BDBDCAC
:10327C000023C4F8003505231048C4F80035D3E703
:10328C00D4F8C434C4F8C4348BB10D4A0B4813F0D1
:10329C00010F18BF104613F0020F02F1010218BF04
:1032AC00104613F0040F074B18BF1846DDE7034810
:1032BC00DBE700BFA08601000000AD0B0100AD0BE9
:1032CC000000AE0B0200AE0B13B5334B0193002381
:1032DC00C0F80431D0F80421C0F82431D0F82421EE
:1032EC00C0F81C31D0F81C21C0F80831D0F80821E6
:1032FC004B6381F82F308B6A012B044617D10B6A74
:10330C005B0614D40223C4F800320123236291F823
:10331C002D20022A18BF23600B688BB140F2862344
:10332C008B608B681D48C4F8043302B010BD0123B8
:10333C00E9E7204602F015F828B1019B013B019307
:10334C00019B002BF5DC91F82F305BB91348019BE6
:10335C00002BEADC0023C4F8003505231048C4F820
:10336C000035E2E7D4F8C434C4F8C4348BB10D4A48
:10337C000B4813F0010F18BF104613F0020F02F1A7
:10338C00010218BF104613F0040F074B18BF184664
:10339C00DDE70348DBE700BFA08601000000AD0BB2
:1033AC000100AD0B0000AE0B0200AE0BF8B50679B8
:1033BC002A4D4FF03C0C0CFB06FC05EB0C0494F86E
:1033CC002E70002F3DD1A76045F80C20636084F867
:1033DC002D7084F8317084F8307051B34B7B84F8C5
:1033EC0038308F7B84F839700FBB0A6802F01F03EA
:1033FC00520928D19B0003F1A043DFF864C0D3F835
:10340C00004740F20C6704EA0C043C43C3F8004745
:10341C004C6804F01F0364091AD19B0003F1A0430C
:10342C00D3F8002702EA0C023A43C3F80027FFF74F
:10343C00ABFE3C2303FB06550A48012385F82E30CE
:10344C00F8BD0948FCE703F5E07357F82330FFDEBD
:10345C0003F5E07352F82330F9E700BFFC020020BB
:10346C00F0F8FCFF0000AD0B0500AD0B0368027912
:10347C000521C3F80015044B3C2101FB0233022249
:10348C0083F82E20704700BFFC02002003680B4A13
:10349C000179C3F80823D3F8002222F00302C3F801
:1034AC0000220022C3F80025054B3C2000FB013311
:1034BC00012183F82E1083F83020704786420400D7
:1034CC00FC0200202DE9F047314F0479D0F8009030
:1034DC003C2303FB04730D4693F82D30012B9446CB
:1034EC0004D10B78012B06D12A4811E0022B02D112
:1034FC000B78012BF8D13C26274BC9F8083306FB77
:10350C00047696F830302BB1B3682448C9F80433EC
:10351C00BDE8F0878CF00403C3F3800386F83030E9
:10352C00C6F820C0A846B8E80F0006F10C0EAEE8AD
:10353C000F00D8F80030CEF800306B68B362EB683F
:10354C0073626B78C9F888352B78C4EB041A012B9D
:10355C0007EB8A0A17D09BB9CCF3401C3C2303FB26
:10356C0004735146484683F82CC0FFF72BFE3C23CE
:10357C005C433A193B59002BCAD182F83030C7E76B
:10358C004FF0010CEAE751464846FFF79DFEEEE787
:10359C00FC0200200500AD0B864204000B00AD0BB5
:1035AC00F0B5324C324887B0214601F0DAFE0028E3
:1035BC0059D194F82F70FFB9227B931E012B1BD885
:1035CC00606AA369984217D1E36963626369A36275
:1035DC00236A274884F82D70C3F34013032A84F818
:1035EC002C3004D107B0BDE8F040FFF7EBBD07B0BD
:1035FC00BDE8F040FFF768BE1E4E0FCE01AD0FC503
:10360C0033682B6047B31A4AD2F8C434C2F8C434B6
:10361C0013F0020106D001238DF80030002384F84A
:10362C00303007E013F0040209D002238DF800308B
:10363C0084F83010D4E900316846984713E013F051
:10364C00010305D003238DF8003084F83020F1E716
:10365C0004228DF80020E2E7236A8DF800705B07E6
:10366C0084F83070E6D507B0F0BD00BFFC02002036
:10367C000030004008030020F7B5064601F013FFA8
:10368C00084601F010FF01A8019601F002FF019B12
:10369C002E4D00EB83000C46D0F80037019440F21D
:1036AC000D612B400B43C0F8003701A801F0F1FE6F
:1036BC00019B00EB83000127D0F800372B400B4314
:1036CC00C0F80037042001F0CFFD092501A80194B2
:1036DC0001F0DFFE019AD0F81035D340DB0715D48A
:1036EC0001A8019601F0D5FE019B07FA03F3C0F87F
:1036FC000C35042001F0B8FD304601F0D4FE013D3C
:10370C00042001F0B1FD15F0FF05DFD101A80194F3
:10371C0001F0BFFE019A01239340C0F80C35042040
:10372C0001F0A2FD204601F0BEFE042001F09CFD3C
:10373C0001A8019401F0ADFE019AD0F810350448AF
:10374C00D34003F00103C01A03B0F0BDF0F8FCFF46
:10375C000100AD0B08B5144BA8220021184601F04E
:10376C00EAFF0322026111494261114A8161C2617F
:10377C004FF480620262002282624262C26201667F
:10378C000C4941661021816603460267C266426796
:10379C00BFF35F8F084911F8010D98540132102ABC
:1037AC00F9D1BFF35F8F08BD38030020095D00001D
:1037BC002804002018040020225D000038B50346C0
:1037CC004FF02002EFF3118582F31288BFF36F8F55
:1037DC0001F0BAFF064A1458184601F032FD85F381
:1037EC001188BFF36F8F2046BDE83840FDF79EBCB3
:1037FC0008000000104B70B553F82040013053F80E
:10380C002060A64200D870BDD4E9003595B153B103
:10381C002846984738B10028B8BF4042EB68FF28CB
:10382C00A8BFFF201870EA68537843F00103537067
:10383C000834E6E79847FBE7745B000008B50A4BD1
:10384C00012203201A70FFF7D5FF00F00BFF0420B4
:10385C00FFF7D0FF00F00CF9FCF78CFF034A137B49
:10386C0023F00103137308BD280800207001002009
:10387C0008B50348034A0021121A01F038FE08BDAE
:10388C00D00000202C08002070B5002386B0012247
:10389C00CDE90423194E1A4D01930F22CDE90232C2
:1038AC001849142303FB005506EBC01604464FF4CD
:1038BC00C070154B00954FF4A07200FB04113046FC
:1038CC0000F096F8737B114AEE6023F004037373D7
:1038DC004FF4046304FB033313446B600C4B2C74E4
:1038EC00BFF35B8F53E8001F013143E80012002A3D
:1038FC00F8D1BFF35B8F06B070BD00BFF0000020A5
:10390C00E4030020801000200F5500004008002028
:10391C00E003002080B50020A6B0FFF76BFF2D4B15
:10392C0083F308882C4D2D4E6B692D4F43F4007397
:10393C006B610024E02385F82230EC772C766C76D2
:10394C00AC7685F820406B6A43F4E0236B6285F813
:10395C002340FDF74DFBFDF799F84FF0FF33AB62B9
:10396C00EB62FDF791FCFDF7F7FB40F20113ADF8AC
:10397C00243006ABB360CDE91E44219401F0ABFDBD
:10398C000120FFF737FF0220164DFFF733FF00F041
:10399C0005FC154B75610593012314490094CDE981
:1039AC0003434FF480623B46CDE90144284600F0C6
:1039BC001FF86A7B064622F0040228466A7301F05F
:1039CC0001FE2046FFF760FF3A4631462846FDF7D8
:1039DC005FF900BF8010002000ED00E0E403002040
:1039EC004938000070010020235D00000012002007
:1039FC002DE9F04385B00732994600F1580322F0C7
:103A0C000706C0E91633109B037306F14005042327
:103A1C00002743730D440F9B83738846C0E90677D8
:103A2C0029468760C7730446FDF762F908F1400325
:103A3C000730C4E9183620F007000E9BA0660293ED
:103A4C000D9B01932D1A0C9B00932A464B46414625
:103A5C002046FDF7EBF8054B67659B6803B1DB6E01
:103A6C00E366284605B0BDE8F08300BFE403002000
:103A7C002DE9F043294C2A4D87B02646AE4204F17D
:103A8C002C040FD300F05AFB244CDFF898904FF421
:103A9C00004640F2E737AC4220D307B0BDE8F04314
:103AAC0000F060BB54F8043C059354F80C3C0493B0
:103ABC0054F8103C039354F8143C029354F8183CFB
:103ACC00019354F81C3C009354E9092354E90B016D
:103ADC00FFF78EFF54F82C3C5E65CEE7636A5A1CE8
:103AEC000DD023EAE37300213846C3FB060151EAEB
:103AFC00C333D4F8008004D1404600F0CFFA2C3404
:103B0C00C9E74FF47A720023FCF7CAFC02460B4655
:103B1C0008F11800494600F0ABFCF0E770590000C2
:103B2C0070590000355600002DE9F3410446174644
:103B3C001E464FF02003EFF3118883F31288BFF376
:103B4C006F8FC368334A7BB180689168884219D003
:103B5C0057EA060318D188F31188BFF36F8F6FF003
:103B6C000F0002B0BDE8F081916891F90E1021614F
:103B7C000133E3609368A36088F31188BFF36F8F00
:103B8C000020EEE72169F2E791F90E1090F90E3062
:103B9C009942A8BF19466FF07E029142B8BF1146F8
:103BAC008B422EDD01F0B9FC0546CDE900761A48B2
:103BBC002246414600F0FCF90028E1D04FF02003EA
:103BCC00EFF3118683F31288BFF36F8FA068D0B127
:103BDC00236821699C420AD04BB193F90E3099426B
:103BEC00A8BF19466FF07E039942B8BF194601F081
:103BFC0094FC40B10848314600F03EFA6FF00A00E0
:103C0C00AFE70025D1E7002DF4D186F31188BFF37F
:103C1C006F8FF3E7E40300202908002038B5836890
:103C2C0004466BB3194A926893422CD1C368012B9A
:103C3C0003D9013BC360002038BD4FF02003EFF3E4
:103C4C00118583F31288BFF36F8F0169806801F0CF
:103C5C0064FC204601F0ECFCA06058B190F90E20F9
:103C6C0022610022826701F0ADFC0948294600F070
:103C7C0003FAE0E7E06085F31188BFF36F8FDAE7B2
:103C8C006FF01500D8E74FF0FF30D5E7E4030020C4
:103C9C002908002038B504464FF02003EFF31185B6
:103CAC0083F31288BFF36F8F01F0C2FC48B100227E
:103CBC00826701F087FC29460748BDE8384000F0D0
:103CCC00DBB9D4E902329A4218BF0133A36085F301
:103CDC001188BFF36F8F38BD2908002013B54FF042
:103CEC002004EFF3118184F31288BFF36F8F846883
:103CFC0044B1013C846081F31188BFF36F8F0020C5
:103D0C0002B010BD52EA030406D181F31188BFF34F
:103D1C006F8F6FF00F00F3E7CDE9002302460248E6
:103D2C0000F046F9ECE700BF29080020C3897F2B7F
:103D3C0012D80A4B1B6863B1094B90F90E201B6813
:103D4C009A4209DB437BDB0606D1064BC31A18BF2C
:103D5C00012303F0010070470023FAE70C04002054
:103D6C0008040020F0000020044BC01A044BC010C3
:103D7C005843044B01221A54704700BFF001002035
:103D8C00ABAAAAAA2908002070B50E4B0E4C1E7CBB
:103D9C0006EB460304EBC3040546204601F07AFC0F
:103DAC000A4B002228469A55FFF7C0FF48B1084B32
:103DBC0008491A68013A2046D317BDE8704000F054
:103DCC0057BB70BDE4030020F0010020290800203F
:103DDC000C040020753D000038B50D4D2B4653F8F2
:103DEC00184F9C4200D004B9EC68AB6838B95A7BC8
:103DFC00D20604D1A26912B9DA897F2A05D89C426D
:103E0C0002D02046FFF7C0FF23466B6138BD00BFD0
:103E1C00E403002070B590F90D20437B002A014685
:103E2C0004DA03F07F03437301F092FB4B7B154ADA
:103E3C0063F07F0310464B7350F8183FD4698342EC
:103E4C0008BF002323B9C1E900042160D1610CE053
:103E5C0091F90E5093F90E60B5420ED0AE420CDDC6
:103E6C005868C1E90030016059609068431A5842A3
:103E7C00BDE870405841FFF7AFBF9C42E3D01B68D0
:103E8C00E0E700BFE403002070B490F90D30427BF2
:103E9C00002B29DBD30627D183692BBB134962F096
:103EAC007F0242730A4652F8184F944218BF2346B9
:103EBC00CC6923B9C0E900242060C8610CE090F9FA
:103ECC000E5093F90E60B5420AD0AE4208DD5A6826
:103EDC00C0E900321060586070BC0020FFF77CBF56
:103EEC00A342E7D01B68E4E770BC7047E4030020F2
:103EFC0008B590F90D20437B002A014604DA03F043
:103F0C007F03437301F024FB044B9868431A584217
:103F1C005841BDE80840FFF75FBF00BFE403002035
:103F2C0070B515461C46064601F024FBB4F1FF3F64
:103F3C0008BFB5F1FF3F08D02A46234606F118000A
:103F4C000249BDE8704000F093BA70BD35560000D0
:103F5C0038B54FF02003EFF3118583F31288BFF3CC
:103F6C006F8F104B104A9C681068A04206D1FFF767
:103F7C000BFF85F31188BFF36F8F38BD00211B7CBD
:103F8C0011600A4AD35C002BF3D02046FFF7CEFE1B
:103F9C000028EED0637BDB0602D12046FFF73AFF08
:103FAC002046E4E7E4030020040400202908002054
:103FBC0070B50C480C4D86682E600C461146DDE938
:103FCC0004234FF02006EFF3118586F31288BFF31C
:103FDC006F8F8068FFF7A4FF2046BDE87040FCF7A8
:103FEC00C9BD00BFE403002004040020F8B504465A
:103FFC004FF02003EFF3118683F31288BFF36F8F1A
:10400C00437BDA0649B219D18569BDB903F07F0348
:10401C00437301F09DFA437B164A817363F07F036F
:10402C004373134653F8180F984218BF0546D069CE
:10403C005DB9C4E900300460D46111E0A1730020C3
:10404C0086F31188BFF36F8FF8BD95F90E70B942E6
:10405C000BD08F4209DD6B68C4E900531C606C60A7
:10406C000120FFF7B9FE0120EAE7A842E1D02D6854
:10407C00DEE700BFE403002049B9EFF3058030B957
:10408C00054B5A699B689A4201D0FCF773BD81F3CA
:10409C001188BFF36F8F7047E403002010B54FF009
:1040AC002002EFF3118482F31288BFF36F8F427BEF
:1040BC00510704D484F31188BFF36F8F10BD22F025
:1040CC0004024273FFF7E0FE21460248BDE81040AF
:1040DC00FFF7D2BF2A08002070B50446183001F053
:1040EC00D9FA4FF02003EFF3118683F31288BFF354
:1040FC006F8F94F90D20637B002A05DA03F07F03A0
:10410C006373204601F024FA0B4D637BA86843F0DF
:10411C0010036373031B58425841FFF75DFE86F38F
:10412C001188BFF36F8FAB68A34203D1BDE8704019
:10413C0001F0A6BA70BD00BFE40300204FF02003CD
:10414C00EFF3118183F31288BFF36F8F044B9A68DE
:10415C00D37B013BD37381F31188BFF36F8F70470F
:10416C00E403002010B54FF02003EFF3118483F328
:10417C001288BFF36F8F084B9A68D37B0133D373CC
:10418C000020FFF729FE84F31188BFF36F8FBDE881
:10419C00104001F075BA00BFE4030020024B03F19C
:1041AC001802C3E906227047E4030020F8B54FF06B
:1041BC002003EFF3118583F31288BFF36F8F194936
:1041CC008868437B03F07F03437301F0C1F98B686C
:1041DC005A7B084662F07F025A7350F8182FCC694C
:1041EC00824208BF002222B9C3E900042360CB61DC
:1041FC000CE093F90E6092F90E70BE420ED0B742ED
:10420C000CDD5168C3E900210B6053600120FFF7FE
:10421C00E3FD2846BDE8F840FCF7ACBCA242E3D075
:10422C001268E0E7E403002050EA01032DE9F041B5
:10423C0005460E4603D1FFF7B9FF00202CE0831C86
:10424C0071F1FF332ADB01F03BFA2C184FF02003FD
:10425C00EFF3118883F31288BFF36F8F114F124B5A
:10426C00B8681860FFF744FEB86810492A46334610
:10427C00183000F0FDF8BA68537B43F01003537309
:10428C004046FCF777FC01F01BFA201A63EB0303A2
:10429C00012873F10003D0DBBDE8F0816FF001045D
:1042AC00241AD3E7E4030020040400203556000050
:1042BC00B1F1FF3F08BFB0F1FF3F08B506D1084B85
:1042CC009868FFF709FF4FF0FF3008BDFFF7ACFF10
:1042DC004FF47A7380FB0303C00B40EA4340F4E7CE
:1042EC00E4030020014B9868704700BFE4030020F2
:1042FC002DE9F04104464FF02003EFF3118683F3D0
:10430C001288BFF36F8F037BD9070BD586F3118807
:10431C00BFF36F8F404080F311884FF0040002DF31
:10432C00BDE8F081437B1A0704D586F31188BFF3EF
:10433C006F8FF5E723F0200242F00801D20920D15B
:10434C004173A36813B1204601F00AF904F1180077
:10435C0001F0A0F904F158074FF00008A56DBD421B
:10436C0000D0B5B90120FFF737FD104B9B68A34275
:10437C00DBD1EFF30583002BD7D13046FCF7FAFBEA
:10438C00D3E703F05F0343F00803437301F0E0F855
:10439C00D7E7284601F0E4F805F1180001F07AF9A6
:1043AC00C5F878802846FFF76FFDD7E7E4030020B7
:1043BC0008B50648064A0749121A01F09AF8BDE8F2
:1043CC000840054A0549064801F093B80000002052
:1043DC00CC000020645D000000000000645D000063
:1043EC0000000020034B1B680BB9FEF7B1B800208E
:1043FC00704700BF1004002010B50E4B1C689C4287
:10440C0004D1FFF7EFFF6FF0004010BDFFF7EAFF9C
:10441C00002CF8D0D4E904321B1A62EBE072B3F131
:10442C00004F72F10001EEDA002AACBF18460020F2
:10443C00EBE700BFB800002030B570B10B4B5B68E8
:10444C0098420AD0036843B1D3E90421D0E904456A
:10445C00121941EB0501C3E90421D0E900321360C4
:10446C005A600023C0E9003330BD00BFB800002003
:10447C00B3F1FF3F08BFB2F1FF3FF8B504461D464C
:10448C0016465CD081604FF02003EFF3118783F365
:10449C001288BFF36F8F013275F1FF3324DA2D4987
:1044AC00D1E900206FF001039B1A4FF0FF3262EB51
:1044BC0000009E1B60EB0500012E70F1000301DA79
:1044CC0001260020C4E90460234ED6F800C07568AC
:1044DC00B44508BF4FF0000CBCF1000F0DD1C4E97E
:1044EC0000652C6074601CE0FFF77CFF013645F121
:1044FC000005361845EBE070E4E7DCE90420D4E96C
:10450C000431934271EB000E1ADAD21ADCF8043043
:10451C0060EB0100CCE90420C4E900C31C60CCF8BA
:10452C0004403368B34206D09C4204D1FFF764FFC9
:10453C000021FDF7D9FF87F31188BFF36F8FF8BD0A
:10454C009B1A61EB0001AC45C4E90431C7D0DCF81F
:10455C0000C0C1E708020020B80000202DE9F84F88
:10456C004FF02003EFF3118C83F31288BFF36F8F9E
:10457C00DFF8B0A0DFF8B0902C4FC9F80000DAF8E3
:10458C0000000024504508BF00200025D7E9002179
:10459C00D9F80030E04680B3D0E9046C4FEAE37EF2
:1045AC00B3427EEB0C0B05DAF61A6CEB0E04C0E989
:1045BC00046422E0B21841EBE671C0E90445C7E996
:1045CC000021FFF739FF88F31188BFF36F8F8368E1
:1045DC0098474FF02003EFF3118883F31288BFF351
:1045EC006F8FD9F80030DAF800009B1B5045C44699
:1045FC00C9F80030CAD1D7E900219A1841EBE3730E
:10460C000024C7E90023C9F80040FFF7F5FE214656
:10461C00FDF76AFF88F31188BFF36F8FBDE8F84F81
:10462C00FFF796BCB8000020100400200802002000
:10463C0010B54FF02003EFF3118483F31288BFF30E
:10464C006F8FFFF7CFFE064A0346D2E90001181818
:10465C0041EBE37184F31188BFF36F8F10BD00BF82
:10466C0008020020014800F04DBA00BF2B5D00008D
:10467C002DE9F04F8BB04368019383789F078246F6
:10468C00144640F10981002591F80080B8F1000F23
:10469C0000F00481B8F1250F0BD04B1C02930135AF
:1046AC00019B5146404698470028C0F2F58002997C
:1046BC00EAE791F801808B1CB8F1250F0293EED03C
:1046CC00002399461F461F2F39D8A8F12002102A23
:1046DC000AD8DFE802F02B09093109090921090977
:1046EC000929092E09091F00A8F13002092A32D91B
:1046FC00B8F12A0F35D1780654F8042B00F18180DB
:10470C00002AA7BF47F020079146C2F1000947F0E5
:10471C00280701E047F00107029A12F8018B029278
:10472C00B8F1000FCFD132E047F0020747F0040791
:10473C00F2E747F00807EFE747F01007ECE77F2FA9
:10474C0018D8A8F13002092AD2D87E0603D50A213E
:10475C0001FB0323E0E70A2101FB092947F02007AD
:10476C00DAE7B8F12E0F05D1790600F1978047F002
:10477C004007D1E7B8F16C0F32D02AD8B8F1680FE6
:10478C0035D0B8F16A0F39D0B8F14C0F36D0002BB8
:10479C0048F02002B8BF27F04007A2F16501BCBF6A
:1047AC00BFB20023022901D9612A2CD1073424F08D
:1047BC0007049A4E08344FF00708380763D506EB08
:1047CC00080B37465F4560D1AE1B3744A9EB08098F
:1047DC0054E1B8F1740F9FD0B8F17A0F9CD0D6E7A2
:1047EC003A0648BF47F4007747F0800794E7FE0588
:1047FC0048BF47F4007747F480778DE747F420777C
:10480C008AE7134688E7A8F16301122900F2CF80EA
:10481C00DFE811F013004800CD00CD00CD00CD0035
:10482C004800CD00CD00CD00CD00CD00DF00C7008D
:10483C00CD00CD001B00CD00960054F8043B8DF844
:10484C001C304FF0010807AEB7E754F8046B744AFC
:10485C00002E08BF164617F0400F14BF19464FF034
:10486C00FF31304600F031FF8046A6E7019B5146F0
:10487C002020984700280FDB013FB845F6D34D4464
:10488C00ED1BB9469BE74F46F7E717F8010B019B69
:10489C0051469847002895DA4FF0FF3528460BB063
:1048AC00BDE8F08F390637D5BA0545BF073424F07B
:1048BC00070454F8040B54F8080B27F010060028D2
:1048CC00B6B232DA404246F48066039307AF0A224E
:1048DC00394600F006FF7206039BA0EB07074BD589
:1048EC0026F00101BB4289B240F38A80B8F1000F77
:1048FC0000F0828016F01002039240F083809B46F9
:10490C000E4640F2064116EA010203921EBF002237
:10491C000BF1010B039238E0FE0554F8040BCCD5D7
:10492C00B9054CBF40B200B2C7E7CED17A06CCD5A0
:10493C00002BCAD127F01107BEB21F469B46E0E7F9
:10494C0027F01007BFB20A223E0646D5B80545BF70
:10495C00073424F0070454F8040B54F8080B00280F
:10496C0044D127F016067906B6B242D5002B40D1B9
:10497C0027F01707BEB21F4616F0100203924AD05A
:10498C00B8F1000F45D107F1010B31075CD4F207E8
:10499C0005D5D94575DDA9EB0B02D319CB465A4683
:1049AC004CE047F0100710224FF07808CCE7782A3B
:1049BC0006D1B8F1580F14BF10224FF40472C3E79C
:1049CC00019B5146252098470028FFF665AF02351C
:1049DC0066E608224FF00008B6E7F90554F8040B18
:1049EC00BDD5BE054CBFC0B280B2B8E727F00607F4
:1049FC00BEB2039307AF6BE726F01106B6B29DE784
:104A0C000E46B9E738460E461F4607F1020B07461D
:104A1C00BBE73846F9E7BB4673E700BF5A5D0000B9
:104A2C00535D0000CDE904325146019B202098478C
:104A3C000028FFF631AF059A049B01329145F1DC59
:104A4C00A5EB0B018D189346039A32B30393514691
:104A5C00019B302098470028FFF61EAF039BB8F14E
:104A6C00000F10D101355E19711B8F4227DB3E46BA
:104A7C000DF11C0866BB2F44A9EB0B093D46B9444C
:104A8C0038E03B468BE70393023551464046019B89
:104A9C0098470028039BE6DAFEE640F206410E42F8
:104AAC00E1D016F0020F14BF2B20202016F4806FDB
:104ABC00039305F10105514618BF2D20E7E7019B33
:104ACC00514630209847002805F10105CCDAE3E681
:104ADC00013E019B18F80600514698470028C9DA98
:104AEC00DAE6019B514620209847002805F1010584
:104AFC00FFF6D2AEA9EB0503002BF2DCD7E500BF25
:104B0C00002070470FB407B504A951F8040B0191AC
:104B1C00FBF77AFE03B05DF804EB04B0704700EBD2
:104B2C00C100408840087047F8B50346FFF7F7FF0F
:104B3C00B0FA80F0C0F11F0003EB800CCA00DCF867
:104B4C001060171D0C4606328DB256B9012101FAC0
:104B5C0000F0D9680143D960CCF81040DD539D5268
:104B6C00F8BDF1000431585AD85303EBC0009E52E3
:104B7C00C5805D52F4E7043A2DE9F041CC1D114497
:104B8C0024F0070421F007010E1BF708B7FA87F28F
:104B9C00C2F12405AD004FF000080735C2F1200228
:104BAC00ED0804604146A760C4F80C80920004F143
:104BBC00100000F0C0FD6B0043F00103638004EBB8
:104BCC00C5027B1B5900A4F800805180A21924F85F
:104BDC003550A2F80280A35304EBC70329465A8828
:104BEC0042F001025A802046BDE8F041FFF79CBF1D
:104BFC00038B13F0070305D10368002B0CBF0020B7
:104C0C0003207047022B05D1408BB0FA80F040098D
:104C1C0080007047012B05D10368002B0CBF0020CE
:104C2C00052070470020704710B50C4600B111B933
:104C3C006FF0150010BD081D00F0BAF80028F9D16E
:104C4C00A368032BF6D9F3E72DE9F0410D4607468F
:104C5C001946281D90461E4600F0BBF8044638B194
:104C6C003346424629463846A446BDE8F0416047E3
:104C7C00BDE8F08110B44FF02004EFF3118284F3FF
:104C8C001288BFF36F8F416110BC0121FBF7EEBDA1
:104C9C0038B50C46054658B151B10B6843B14B6859
:104CAC0033B11C22002100F046FD2C61002038BDE0
:104CBC006FF01500FBE770B505460E46FFF7B4FF25
:104CCC00041E15DB4FF02003EFF3118283F31288DF
:104CDC00BFF36F8F6B8B2C8B4FF6FF718B4204F0F5
:104CEC00070407D182F31188BFF36F8F6FF00A04AA
:104CFC00204670BD022C0CD101336B8382F31188DA
:104D0C00BFF36F8F0023224631462846FFF79CFFE6
:104D1C00EEE7062C14D8DFE804F004131313041A7E
:104D2C000400002333606B683BB9C5E90066ACB97D
:104D3C0002212846FBF79AFDDAE71E606E60F6E763
:104D4C0082F31188BFF36F8F6FF00404D0E782F306
:104D5C001188BFF36F8F6FF08504C9E782F3118858
:104D6C00BFF36F8FC4E710B54FF02003EFF3118240
:104D7C0083F31288BFF36F8F048B04F00704022CAB
:104D8C000AD0012C0CBF6FF004006FF0850082F389
:104D9C001188BFF36F8F08E0438B013B9BB24383B9
:104DAC0023B92146FBF762FD204610BD2046EEE7F5
:104DBC00034658B1426802F00302012A03D0032AC9
:104DCC0004D1026812B10020986070476FF0150092
:104DDC0070474268816002F00302032A4FF0000220
:104DEC0003460CBF006810465A6070477047FEF7C8
:104DFC00E5BC01460068FEF7E1BC00210120FFF78D
:104E0C00F6BF08B5FBF796FEBDE80840FBF79EBF62
:104E1C0008B5FCF769FA002008BD0369C9B20C2279
:104E2C0001FB0233186C00F0070070474FF02003B1
:104E3C00EFF3118283F31288BFF36F8F036803F0D3
:104E4C00C00343F00203036082F31188BFF36F8F3A
:104E5C00704770B5C9B203694FF02004EFF31185A8
:104E6C0084F31288BFF36F8F0C2606FB0134246C7D
:104E7C0014F0C00408D0A24206D085F31188BFF309
:104E8C006F8F4FF0FF3070BD06FB013301221A64A7
:104E9C0085F31188BFF36F8F436803EBC1035B6825
:104EAC0098470020EFE78022FFF7D3BFF8B5069FA5
:104EBC000469C9B24FF02005EFF3118685F312880F
:104ECC00BFF36F8F0C2505FB0144256C05F0070C17
:104EDC00BCF1010F0CD1276486F31188BFF36F8FDF
:104EEC00C4E90E23436853F8313098470020F8BDCD
:104EFC0005F0C005AF4286F31188BFF36F8F0CBF6E
:104F0C006FF077004FF0FF30F1E713B58024009479
:104F1C00FFF7CCFF02B010BD10B40069CBB21C245B
:104F2C0003FB0400002110BC1047002000F0B5B9B1
:104F3C001046FEF7AFBE43685B68D3F810350B60C4
:104F4C000020704743685B6802EA010021EA020115
:104F5C00C3F80805C3F80C150020704743685B685C
:104F6C000020C3F80815704743685B680020C3F83D
:104F7C000C15704743685A68D2F8043521EA0300CF
:104F8C000B40C2F80805C2F80C350020704710B56C
:104F9C0003695868F8B1884219D19C680868586050
:104FAC00A14200D19860002008602AB15A680A60BA
:104FBC009A68596002B99960002010E0814206D1CC
:104FCC000868206098688142EDD19C60EBE704464C
:104FDC0000680028F2D1002AE8D16FF0150010BD4E
:104FEC00CA074368006905D4C1F34202012A04D000
:104FFC00022A0AD06FF0150070471B684FF0CC7274
:10500C00C3F824254162002070471B684FF0CD6225
:10501C00F6E730B543681360057A446804EBC504C1
:10502C00A34202D36FF0010030BD5C798C4201D0F9
:10503C000833F0E70020F7E770B50C460569164613
:10504C004FF0FF324FF0FF332846FEF76DFD0F2C6B
:10505C0008D0112C0BD06FF085042846FEF7DEFD2E
:10506C00204670BDA88A306000247460F5E7E88A99
:10507C00FBF79CF9A969FBF72BF8FBF7EBF9F2E7C7
:10508C0030B58BB043688DF8071014460DF107014D
:10509C0000221868ADF80C209B8804918DF818201C
:1050AC00012103AA059107920721022208928DF88B
:1050BC00241081688D6804A9A84710B9BDF80C307C
:1050CC0023800BB030BD70B5054606690C464FF019
:1050DC00FF324FF0FF333046FEF726FD3A2C13D14A
:1050EC0006F1140208212846FFF7CAFF041E06DB4E
:1050FC0006F1160209212846FFF7C2FF0446304686
:10510C00FEF78CFD204670BD0F2C03D106F1140266
:10511C000821F0E7112CEBD00024F0E71FB5436811
:10512C008DF80120120A8DF80220032218689B8842
:10513C00029202228DF80010CDF804D08DF80C20CC
:10514C00826801A994680122A04700EAE07004B0CB
:10515C0010BD02690B46D2E9010183E8030000206F
:10516C00704743681B68D3F88004C3F88004704709
:10517C00436802691B68D3F8100150B152690020D2
:10518C0012780A70C3F81001D3F8102101221A60AA
:10519C0070474FF0FF30704702680346D2F8580151
:1051AC0040B95B689B0706D4D2F82001003818BFC1
:1051BC00012070470120704742681368D3F804132C
:1051CC00C90518D5D3F82011A9B14FF02000EFF381
:1051DC00118180F31288BFF36F8FD3F8200130B1A7
:1051EC000020C3F82001D3F820010120D86081F3FE
:1051FC001188BFF36F8F5268D20615D54FF020017E
:10520C00EFF3118281F31288BFF36F8FD3F858112B
:10521C0011B10021C3F800154FF48001C3F8081335
:10522C0082F31188BFF36F8F704700F150039B001E
:10523C009BB203F1804303F5883300221A601B688C
:10524C00704708B50020FBF71BFF4FF08053D3F8D5
:10525C003001421C04BF4FF0704393F8E00F831FE2
:10526C00584258417047004700F031B9C00000F176
:10527C00804000F5F830C0F81015C0F814257047C0
:10528C0008B50020FBF730FC08B9FBF71FFC4FF00A
:10529C0080430022C3F8182508BDFDF705BB036841
:1052AC0003F01F025B0902600CBF4FF0A04000200E
:1052BC007047F7B5019001A8DDE9084716461D4671
:1052CC00FFF7EDFF019BB6F1000C18BF4FF0010C7E
:1052DC0000EB83000B1E18BF0123002D43EA4C0387
:1052EC0014BF4FF00C0C4FF0000C002C43EA0C03D5
:1052FC0014BF4FF4E06C4FF0000C002F43EA0C038A
:10530C00D0F8002714BF4FF4403C4FF0000C43EA98
:10531C000C0322EA030301B109780EB1367876004A
:10532C0019430DB12D78AD0031430CB12478240212
:10533C0029430FB13F783F040C433C43C0F800476E
:10534C0003B0F0BD1FB50DF10F03019300238DF8D1
:10535C000F1000931A461946FFF7ABFF05B05DF826
:10536C0004FB30B5D0F804312BB10023C0F8043164
:10537C00D0F80431012391F82F2022B30022C0F879
:10538C002421D0F82441C0F81C21D0F81C41C0F8CD
:10539C000821D0F80821002B79D0002281F82D208B
:1053AC0091F82F20002A37D18D6A4C6BA5421FBF74
:1053BC000523C0F80025C0F80035134683F001031F
:1053CC0081F82F3028E0D0F8244114B1C0F8242102
:1053DC000EE0D0F81C216AB3C0F81C41D0F81C2197
:1053EC004A6B01324A63D0F8245145B1C0F82441CC
:1053FC00D0F824210122426181F82F20CBE78C6A5E
:10540C00A24204D24C6AA25CC0F81C25C3E791F8F6
:10541C002C201AB10123C361002030BD0A6A12F09E
:10542C00400F4FF0010203D0C26181F82D20F3E749
:10543C004261B0E7D0F80841002CACD0C0F808218C
:10544C00D0F80841D0F82441002CBFD14A6B8C6AAB
:10545C00A242A0D24C6AD0F81855A5544A6B8C6A5B
:10546C000132651EAA424A6308D10A6A540602D464
:10547C000222C0F80022012202628CE7A242FAD179
:10548C000A6A520687D5022381F82D30C4E7012021
:10549C00C3E7036803F01F025B0902600CBF4FF007
:1054AC00A0400020704707B5019001A8FFF7F1FF5D
:1054BC00019A01239340C0F8083503B05DF804FB52
:1054CC00FEF748B908B5FFF7FBFF002008BD08B18F
:1054DC00FBF73CBF7047704740B1C368587810F079
:1054EC0001001EBF1878B0FA80F04009704700F038
:1054FC0022B900F012B9EFF30580003818BF012073
:10550C00704708B54FF02002EFF3118382F3128835
:10551C00BFF36F8FFBF7C0FAF4E790F90E308B42B4
:10552C0001D0FEF763BD0020704703460020C3E99D
:10553C000200C3E9003370473AB18A4205D3C0E98F
:10554C000212C0E90000002070476FF01500704790
:10555C00D0E9003213605A600023C0E90033704771
:10556C0008B5FFF7F5FF437B23F0020343730023D9
:10557C00836008BD38B504460D46FEF7B9FC637B65
:10558C0043F002036373E5B1A5602B689D4209D11A
:10559C006B68C4E900531C606C6012E06A6893424B
:1055AC00F6D01B68002BF3D094F90E2093F90E1053
:1055BC008A42F3D09142F1DD5A68C4E9003214609A
:1055CC005C6038BD10B54FF02003EFF3118483F30A
:1055DC001288BFF36F8FFEF757FC84F31188BFF36B
:1055EC006F8F10BD38B504464FF02003EFF31185D3
:1055FC0083F31288BFF36F8F437B13F0280F0BD10B
:10560C0083680BB1FFF7ACFF637B51B903F0FB036D
:10561C0063732046FEF738FC85F31188BFF36F8F58
:10562C0038BD03F0EB03F3E701211838FFF7DABFBD
:10563C0038B54FF02003EFF3118583F31288BFF3D5
:10564C006F8F0468A0420DD034B12046FFF788FF5D
:10565C0004F1180000F01EF885F31188BFF36F8F6A
:10566C00204638BD0024F7E7034620B9EFF3058246
:10567C000AB9FBF77FBA83F31188BFF36F8F7047BA
:10568C004FF02003EFF3118083F31288BFF36F8F79
:10569C00FFF7EABF10B54FF02002EFF3118482F34D
:1056AC001288BFF36F8F03683BB1FEF7C5FE002075
:1056BC0084F31188BFF36F8F10BD6FF01500F7E7FF
:1056CC0008B5FEF7B5FF08BD704710B5024601449A
:1056DC008A42134603D01C780132002CF8D1181AD8
:1056EC0010BD930570B548BF22F4007204460846FD
:1056FC004CBF07212721B4FBF2F502FB1543DBB2AB
:10570C00092B88BF5B18264688BFDBB23033B24208
:10571C0000F8013B2C46EED970BD0A44914200F1D1
:10572C00FF3300D1704710B511F8014B03F8014F4E
:10573C009142F9D110BD02440346934200D1704707
:10574C0003F8011BF9E700000148006870470000EE
:04575C00180200200F
:0857600080ADFF7F0100000095
:10576800411300000000000015140000C05700009D
:10577800D154000000000000AD170000D45700000D
:105788007D1F0000E857000085160000000000009B
:1057980091230000000000001D130000000000001D
:1057A8006D190000FC570000111D00001058000082
:0857B800511D000024580000FF
:1057C0002C5C0000305A0000405A0000C00000204D
:1057D00040020020495C00005C5A00006C5A000046
:1057E000C200002094020020A25C0000285B0000A0
:1057F0005C5B0000CA0000203C0000205B5C0000F5
:10580000905A0000C85A0000C40000201400002074
:10581000755C000000000000E05A0000C600002097
:10582000A00200208D5C0000FC5A00000C5B000010
:08583000C8000020CC0200209A
:10583800492A00007352000000000000074E0000D3
:10584800E8570000C5510000AD3500007352000054
:1058580000000000074E000000000000074E000096
:105868002D3000007352000000000000074E0000B9
:1058780000000000074E000000000000074E000076
:1058880000000000074E000000000000074E000066
:1058980010580000811C000000000000074E0000A6
:1058A80000000000074E000000000000074E000046
:1058B80000000000074E0000000000002124000046
:1058C80000000000074E000000000000074E000026
:1058D80000000000074E000000000000074E000016
:1058E80000000000074E000000000000074E000006
:1058F80000000000074E000000000000074E0000F6
:1059080000000000074E000000000000074E0000E5
:1059180000000000074E000000000000074E0000D5
:1059280000000000074E000000000000074E0000C5
:1059380000000000074E000000000000074E0000B5
:1059480000000000074E000000000000074E0000A5
:1059580000000000074E000000000000074E000095
:0859680000000000074E0000E2
:10597000E05C000000000000EB5C000000000000A4
:10598000F75C000000000000005D00000000000067
:10599000045C0000000000003B5C00000000000010
:1059A000C05C000000000000575C00000000000028
:1059B000685C000000000000155C000000000000B2
:1059C000285D000000000000285C000000000000CE
:1059D000835C000000000000B05C000000000000DC
:0859E000995C000000000000CA
:0859E800FFFFFFFFFFFFFFFFBF
:1059F0000338FDD8704700000000002000000000C0
:105A000000000B06020000000C5A0000000000001D
:105A1000195C00002400020700000020215C000047
:105A20001E000B119D1300006D130000000000000C
:105A3000BD140000E113000055150000374F0000B1
:105A400021150000B34E0000174F000000000000B9
:105A5000274E00000000000000000000FFFFFFFFD5
:105A600000000050000000000000000021180000AD
:105A7000434F0000514F0000694F0000754F000078
:105A8000814F0000D51600009B4F00000000000071
:105A90000030004000000000000000000000000096
:105AA0000000680600000101AC5A00000030004010
:105AB000B85A000001000000C05A000002000000B7
:105AC0001A000C001B000B00ED4F0000000000004E
